{
  "contractName": "CryptogalleryV1",
  "abi": [
    {
      "inputs": [],
      "stateMutability": "nonpayable",
      "type": "constructor"
    },
    {
      "inputs": [
        {
          "internalType": "address",
          "name": "",
          "type": "address"
        }
      ],
      "name": "Buyers",
      "outputs": [
        {
          "internalType": "uint256",
          "name": "",
          "type": "uint256"
        }
      ],
      "stateMutability": "view",
      "type": "function"
    },
    {
      "inputs": [
        {
          "internalType": "address",
          "name": "",
          "type": "address"
        }
      ],
      "name": "artOwners",
      "outputs": [
        {
          "internalType": "uint256",
          "name": "id",
          "type": "uint256"
        },
        {
          "internalType": "uint256",
          "name": "price",
          "type": "uint256"
        }
      ],
      "stateMutability": "view",
      "type": "function"
    },
    {
      "inputs": [],
      "name": "owner",
      "outputs": [
        {
          "internalType": "address payable",
          "name": "",
          "type": "address"
        }
      ],
      "stateMutability": "view",
      "type": "function"
    },
    {
      "inputs": [
        {
          "internalType": "uint256",
          "name": "artId",
          "type": "uint256"
        },
        {
          "internalType": "uint256",
          "name": "price",
          "type": "uint256"
        }
      ],
      "name": "purchaseArt",
      "outputs": [],
      "stateMutability": "payable",
      "type": "function"
    },
    {
      "inputs": [],
      "name": "getbalance",
      "outputs": [
        {
          "internalType": "uint256",
          "name": "balance",
          "type": "uint256"
        }
      ],
      "stateMutability": "view",
      "type": "function"
    }
  ],
  "bytecode": "0x608060405234801561001057600080fd5b50336000806101000a81548173ffffffffffffffffffffffffffffffffffffffff021916908373ffffffffffffffffffffffffffffffffffffffff160217905550610373806100606000396000f3fe60806040526004361061004a5760003560e01c80632636094c1461004f57806346f57042146100bb5780634d9b3d5d146100f35780637dca429f1461011e5780638da5cb5b14610183575b600080fd5b34801561005b57600080fd5b5061009e6004803603602081101561007257600080fd5b81019080803573ffffffffffffffffffffffffffffffffffffffff1690602001909291905050506101da565b604051808381526020018281526020019250505060405180910390f35b6100f1600480360360408110156100d157600080fd5b8101908080359060200190929190803590602001909291905050506101fe565b005b3480156100ff57600080fd5b506101086102f8565b6040518082815260200191505060405180910390f35b34801561012a57600080fd5b5061016d6004803603602081101561014157600080fd5b81019080803573ffffffffffffffffffffffffffffffffffffffff169060200190929190505050610300565b6040518082815260200191505060405180910390f35b34801561018f57600080fd5b50610198610318565b604051808273ffffffffffffffffffffffffffffffffffffffff1673ffffffffffffffffffffffffffffffffffffffff16815260200191505060405180910390f35b60016020528060005260406000206000915090508060000154908060010154905082565b6000809054906101000a900473ffffffffffffffffffffffffffffffffffffffff1673ffffffffffffffffffffffffffffffffffffffff166108fc829081150290604051600060405180830381858888f19350505050158015610265573d6000803e3d6000fd5b5081600160003373ffffffffffffffffffffffffffffffffffffffff1673ffffffffffffffffffffffffffffffffffffffff1681526020019081526020016000206000018190555080600160003373ffffffffffffffffffffffffffffffffffffffff1673ffffffffffffffffffffffffffffffffffffffff168152602001908152602001600020600101819055505050565b600047905090565b60026020528060005260406000206000915090505481565b6000809054906101000a900473ffffffffffffffffffffffffffffffffffffffff168156fea264697066735822122049a46aee75fb18f4cf2657a2b51089ecedd5cef13773fe458c89539032d3bcd064736f6c63430006020033",
  "source": "pragma solidity ^0.6.2;\r\ncontract CryptogalleryV1 {\r\n\r\n    address payable public owner;\r\n    struct artDetails {                  \r\n        uint id;\r\n        address artistAddress;\r\n        string artistName;\r\n        string description;\r\n        uint price;\r\n    }\r\n\r\n    struct artDetailsTemp {                  \r\n        uint id;\r\n        uint price;\r\n    }\r\n    \r\n    mapping(address => artDetailsTemp) public artOwners;\r\n    mapping(address => uint) public Buyers;\r\n\r\n\r\n    constructor () public  {\r\n        owner = msg.sender;\r\n    }\r\n    \r\n     \r\n    function purchaseArt(uint artId, uint price) public payable{\r\n        owner.transfer(price);\r\n        artOwners[msg.sender].id = artId;\r\n        artOwners[msg.sender].price = price;\r\n    }\r\n\r\n    function getbalance() public view returns (uint balance){\r\n        return address(this).balance;\r\n    }\r\n    \r\n}",
  "sourcePath": "D:\\crypto-galary\\WebApp\\cryptogallery-contract\\contracts\\CryptogalleryV1.sol",
  "compiler": {
    "name": "solc",
    "version": "0.6.2+commit.bacdbe57.Emscripten.clang"
  },
  "schemaVersion": "3.4.5",
  "updatedAt": "2022-04-17T02:05:42.351Z",
  "devdoc": {
    "methods": {}
  },
  "userdoc": {
    "methods": {}
  }
}