{
  "contractName": "CryptogalleryV2",
  "abi": [
    {
      "inputs": [
        {
          "internalType": "contract ERC20CARAT",
          "name": "_tokenContract",
          "type": "address"
        },
        {
          "internalType": "uint256",
          "name": "_tokenPrice",
          "type": "uint256"
        }
      ],
      "stateMutability": "nonpayable",
      "type": "constructor"
    },
    {
      "inputs": [
        {
          "internalType": "uint256",
          "name": "",
          "type": "uint256"
        }
      ],
      "name": "artData",
      "outputs": [
        {
          "internalType": "address",
          "name": "artistAddress",
          "type": "address"
        },
        {
          "internalType": "address",
          "name": "owner",
          "type": "address"
        },
        {
          "internalType": "string",
          "name": "artistName",
          "type": "string"
        },
        {
          "internalType": "string",
          "name": "description",
          "type": "string"
        },
        {
          "internalType": "uint256",
          "name": "price",
          "type": "uint256"
        },
        {
          "internalType": "uint256",
          "name": "id",
          "type": "uint256"
        }
      ],
      "stateMutability": "view",
      "type": "function",
      "constant": true
    },
    {
      "inputs": [
        {
          "internalType": "uint256",
          "name": "",
          "type": "uint256"
        }
      ],
      "name": "artOnSale",
      "outputs": [
        {
          "internalType": "bool",
          "name": "",
          "type": "bool"
        }
      ],
      "stateMutability": "view",
      "type": "function",
      "constant": true
    },
    {
      "inputs": [
        {
          "internalType": "address",
          "name": "",
          "type": "address"
        },
        {
          "internalType": "uint256",
          "name": "",
          "type": "uint256"
        }
      ],
      "name": "artOwners",
      "outputs": [
        {
          "internalType": "uint256",
          "name": "",
          "type": "uint256"
        }
      ],
      "stateMutability": "view",
      "type": "function",
      "constant": true
    },
    {
      "inputs": [
        {
          "internalType": "address",
          "name": "",
          "type": "address"
        },
        {
          "internalType": "uint256",
          "name": "",
          "type": "uint256"
        }
      ],
      "name": "artSellers",
      "outputs": [
        {
          "internalType": "uint256",
          "name": "",
          "type": "uint256"
        }
      ],
      "stateMutability": "view",
      "type": "function",
      "constant": true
    },
    {
      "inputs": [],
      "name": "owner",
      "outputs": [
        {
          "internalType": "address payable",
          "name": "",
          "type": "address"
        }
      ],
      "stateMutability": "view",
      "type": "function",
      "constant": true
    },
    {
      "inputs": [],
      "name": "tokenContract",
      "outputs": [
        {
          "internalType": "contract ERC20CARAT",
          "name": "",
          "type": "address"
        }
      ],
      "stateMutability": "view",
      "type": "function",
      "constant": true
    },
    {
      "inputs": [],
      "name": "tokenPrice",
      "outputs": [
        {
          "internalType": "uint256",
          "name": "",
          "type": "uint256"
        }
      ],
      "stateMutability": "view",
      "type": "function",
      "constant": true
    },
    {
      "inputs": [],
      "name": "tokensSold",
      "outputs": [
        {
          "internalType": "uint256",
          "name": "",
          "type": "uint256"
        }
      ],
      "stateMutability": "view",
      "type": "function",
      "constant": true
    },
    {
      "inputs": [
        {
          "internalType": "address",
          "name": "",
          "type": "address"
        }
      ],
      "name": "users",
      "outputs": [
        {
          "internalType": "int256",
          "name": "",
          "type": "int256"
        }
      ],
      "stateMutability": "view",
      "type": "function",
      "constant": true
    },
    {
      "inputs": [],
      "name": "register",
      "outputs": [],
      "stateMutability": "nonpayable",
      "type": "function"
    },
    {
      "inputs": [
        {
          "internalType": "uint256",
          "name": "id",
          "type": "uint256"
        },
        {
          "internalType": "string",
          "name": "description",
          "type": "string"
        },
        {
          "internalType": "uint256",
          "name": "price",
          "type": "uint256"
        }
      ],
      "name": "addArt",
      "outputs": [
        {
          "internalType": "uint256",
          "name": "artuid",
          "type": "uint256"
        }
      ],
      "stateMutability": "nonpayable",
      "type": "function"
    },
    {
      "inputs": [
        {
          "internalType": "uint256",
          "name": "artId",
          "type": "uint256"
        },
        {
          "internalType": "uint256",
          "name": "price",
          "type": "uint256"
        }
      ],
      "name": "purchaseArt",
      "outputs": [
        {
          "internalType": "bool",
          "name": "success",
          "type": "bool"
        }
      ],
      "stateMutability": "payable",
      "type": "function",
      "payable": true
    },
    {
      "inputs": [],
      "name": "getbalance",
      "outputs": [
        {
          "internalType": "uint256",
          "name": "balance",
          "type": "uint256"
        }
      ],
      "stateMutability": "view",
      "type": "function",
      "constant": true
    },
    {
      "inputs": [
        {
          "internalType": "uint256",
          "name": "artId",
          "type": "uint256"
        },
        {
          "internalType": "uint8",
          "name": "updatedPrice",
          "type": "uint8"
        }
      ],
      "name": "manageArt",
      "outputs": [
        {
          "internalType": "bool",
          "name": "success",
          "type": "bool"
        }
      ],
      "stateMutability": "nonpayable",
      "type": "function"
    }
  ],
  "bytecode": "0x608060405234801561001057600080fd5b506040516113ec3803806113ec8339818101604052604081101561003357600080fd5b810190808051906020019092919080519060200190929190505050336000806101000a81548173ffffffffffffffffffffffffffffffffffffffff021916908373ffffffffffffffffffffffffffffffffffffffff16021790555081600260006101000a81548173ffffffffffffffffffffffffffffffffffffffff021916908373ffffffffffffffffffffffffffffffffffffffff16021790555080600381905550606460018190555050506112fd806100ef6000396000f3fe6080604052600436106100dd5760003560e01c8063712590161161007f5780639ad8c447116100595780639ad8c447146103e8578063a87430ba14610448578063afd30e82146104ad578063e80384541461051c576100dd565b806371259016146102b85780637ff9b596146103665780638da5cb5b14610391576100dd565b80634d9b3d5d116100bb5780634d9b3d5d1461019c57806351391121146101c7578063518ab2a81461023657806355a373d614610261576100dd565b80631aa3a008146100e25780633fe89882146100f957806346f570421461014c575b600080fd5b3480156100ee57600080fd5b506100f76106b0565b005b34801561010557600080fd5b506101326004803603602081101561011c57600080fd5b81019080803590602001909291905050506108e8565b604051808215151515815260200191505060405180910390f35b6101826004803603604081101561016257600080fd5b810190808035906020019092919080359060200190929190505050610908565b604051808215151515815260200191505060405180910390f35b3480156101a857600080fd5b506101b1610bb0565b6040518082815260200191505060405180910390f35b3480156101d357600080fd5b50610220600480360360408110156101ea57600080fd5b81019080803573ffffffffffffffffffffffffffffffffffffffff16906020019092919080359060200190929190505050610bb8565b6040518082815260200191505060405180910390f35b34801561024257600080fd5b5061024b610be6565b6040518082815260200191505060405180910390f35b34801561026d57600080fd5b50610276610bec565b604051808273ffffffffffffffffffffffffffffffffffffffff1673ffffffffffffffffffffffffffffffffffffffff16815260200191505060405180910390f35b3480156102c457600080fd5b50610350600480360360608110156102db57600080fd5b81019080803590602001909291908035906020019064010000000081111561030257600080fd5b82018360208201111561031457600080fd5b8035906020019184600183028401116401000000008311171561033657600080fd5b909192939192939080359060200190929190505050610c12565b6040518082815260200191505060405180910390f35b34801561037257600080fd5b5061037b610ed8565b6040518082815260200191505060405180910390f35b34801561039d57600080fd5b506103a6610ede565b604051808273ffffffffffffffffffffffffffffffffffffffff1673ffffffffffffffffffffffffffffffffffffffff16815260200191505060405180910390f35b3480156103f457600080fd5b5061042e6004803603604081101561040b57600080fd5b8101908080359060200190929190803560ff169060200190929190505050610f03565b604051808215151515815260200191505060405180910390f35b34801561045457600080fd5b506104976004803603602081101561046b57600080fd5b81019080803573ffffffffffffffffffffffffffffffffffffffff169060200190929190505050610fce565b6040518082815260200191505060405180910390f35b3480156104b957600080fd5b50610506600480360360408110156104d057600080fd5b81019080803573ffffffffffffffffffffffffffffffffffffffff16906020019092919080359060200190929190505050610fe6565b6040518082815260200191505060405180910390f35b34801561052857600080fd5b506105556004803603602081101561053f57600080fd5b8101908080359060200190929190505050611014565b604051808773ffffffffffffffffffffffffffffffffffffffff1673ffffffffffffffffffffffffffffffffffffffff1681526020018673ffffffffffffffffffffffffffffffffffffffff1673ffffffffffffffffffffffffffffffffffffffff1681526020018060200180602001858152602001848152602001838103835287818151815260200191508051906020019080838360005b838110156106095780820151818401526020810190506105ee565b50505050905090810190601f1680156106365780820380516001836020036101000a031916815260200191505b50838103825286818151815260200191508051906020019080838360005b8381101561066f578082015181840152602081019050610654565b50505050905090810190601f16801561069c5780820380516001836020036101000a031916815260200191505b509850505050505050505060405180910390f35b6001600960003373ffffffffffffffffffffffffffffffffffffffff1673ffffffffffffffffffffffffffffffffffffffff168152602001908152602001600020541415610766576040517f08c379a00000000000000000000000000000000000000000000000000000000081526004018080602001828103825260208152602001807f54686973207573657220697320616c726561647920726567697374657265642e81525060200191505060405180910390fd5b6001600960003373ffffffffffffffffffffffffffffffffffffffff1673ffffffffffffffffffffffffffffffffffffffff16815260200190815260200160002081905550600260009054906101000a900473ffffffffffffffffffffffffffffffffffffffff1673ffffffffffffffffffffffffffffffffffffffff166323b872dd6000809054906101000a900473ffffffffffffffffffffffffffffffffffffffff163360646040518463ffffffff1660e01b8152600401808473ffffffffffffffffffffffffffffffffffffffff1673ffffffffffffffffffffffffffffffffffffffff1681526020018373ffffffffffffffffffffffffffffffffffffffff1673ffffffffffffffffffffffffffffffffffffffff1681526020018281526020019350505050602060405180830381600087803b1580156108aa57600080fd5b505af11580156108be573d6000803e3d6000fd5b505050506040513d60208110156108d457600080fd5b810190808051906020019092919050505050565b60066020528060005260406000206000915054906101000a900460ff1681565b60006001600960003373ffffffffffffffffffffffffffffffffffffffff1673ffffffffffffffffffffffffffffffffffffffff16815260200190815260200160002054146109bf576040517f08c379a000000000000000000000000000000000000000000000000000000000815260040180806020018281038252601c8152602001807f546869732075736572206973206e6f7420726567697374657265642e0000000081525060200191505060405180910390fd5b60006005600085815260200190815260200160002060000160009054906101000a900473ffffffffffffffffffffffffffffffffffffffff169050600260009054906101000a900473ffffffffffffffffffffffffffffffffffffffff1673ffffffffffffffffffffffffffffffffffffffff166323b872dd3383866040518463ffffffff1660e01b8152600401808473ffffffffffffffffffffffffffffffffffffffff1673ffffffffffffffffffffffffffffffffffffffff1681526020018373ffffffffffffffffffffffffffffffffffffffff1673ffffffffffffffffffffffffffffffffffffffff1681526020018281526020019350505050602060405180830381600087803b158015610ad757600080fd5b505af1158015610aeb573d6000803e3d6000fd5b505050506040513d6020811015610b0157600080fd5b810190808051906020019092919050505050600760003373ffffffffffffffffffffffffffffffffffffffff1673ffffffffffffffffffffffffffffffffffffffff16815260200190815260200160002084908060018154018082558091505060019003906000526020600020016000909190919091505560006006600086815260200190815260200160002060006101000a81548160ff021916908315150217905550600191505092915050565b600047905090565b60086020528160005260406000208181548110610bd157fe5b90600052602060002001600091509150505481565b60045481565b600260009054906101000a900473ffffffffffffffffffffffffffffffffffffffff1681565b60006001600960003373ffffffffffffffffffffffffffffffffffffffff1673ffffffffffffffffffffffffffffffffffffffff1681526020019081526020016000205414610cc9576040517f08c379a000000000000000000000000000000000000000000000000000000000815260040180806020018281038252601c8152602001807f546869732075736572206973206e6f7420726567697374657265642e0000000081525060200191505060405180910390fd5b610cd16111c0565b858160a001818152505033816000019073ffffffffffffffffffffffffffffffffffffffff16908173ffffffffffffffffffffffffffffffffffffffff168152505084848080601f016020809104026020016040519081016040528093929190818152602001838380828437600081840152601f19601f8201169050808301925050505050505081606001819052508281608001818152505033816020019073ffffffffffffffffffffffffffffffffffffffff16908173ffffffffffffffffffffffffffffffffffffffff1681525050806005600088815260200190815260200160002060008201518160000160006101000a81548173ffffffffffffffffffffffffffffffffffffffff021916908373ffffffffffffffffffffffffffffffffffffffff16021790555060208201518160010160006101000a81548173ffffffffffffffffffffffffffffffffffffffff021916908373ffffffffffffffffffffffffffffffffffffffff1602179055506040820151816002019080519060200190610e60929190611222565b506060820151816003019080519060200190610e7d929190611222565b506080820151816004015560a0820151816005015590505060016006600088815260200190815260200160002060006101000a81548160ff021916908315150217905550600180540160018190555085915050949350505050565b60035481565b6000809054906101000a900473ffffffffffffffffffffffffffffffffffffffff1681565b6000823373ffffffffffffffffffffffffffffffffffffffff166005600083815260200190815260200160002060000160009054906101000a900473ffffffffffffffffffffffffffffffffffffffff1673ffffffffffffffffffffffffffffffffffffffff1614610f7457600080fd5b600115156006600086815260200190815260200160002060009054906101000a900460ff16151514610fa557600080fd5b8260ff166005600086815260200190815260200160002060040181905550600191505092915050565b60096020528060005260406000206000915090505481565b60076020528160005260406000208181548110610fff57fe5b90600052602060002001600091509150505481565b60056020528060005260406000206000915090508060000160009054906101000a900473ffffffffffffffffffffffffffffffffffffffff16908060010160009054906101000a900473ffffffffffffffffffffffffffffffffffffffff1690806002018054600181600116156101000203166002900480601f01602080910402602001604051908101604052809291908181526020018280546001816001161561010002031660029004801561110c5780601f106110e15761010080835404028352916020019161110c565b820191906000526020600020905b8154815290600101906020018083116110ef57829003601f168201915b505050505090806003018054600181600116156101000203166002900480601f0160208091040260200160405190810160405280929190818152602001828054600181600116156101000203166002900480156111aa5780601f1061117f576101008083540402835291602001916111aa565b820191906000526020600020905b81548152906001019060200180831161118d57829003601f168201915b5050505050908060040154908060050154905086565b6040518060c00160405280600073ffffffffffffffffffffffffffffffffffffffff168152602001600073ffffffffffffffffffffffffffffffffffffffff168152602001606081526020016060815260200160008152602001600081525090565b828054600181600116156101000203166002900490600052602060002090601f016020900481019282601f1061126357805160ff1916838001178555611291565b82800160010185558215611291579182015b82811115611290578251825591602001919060010190611275565b5b50905061129e91906112a2565b5090565b6112c491905b808211156112c05760008160009055506001016112a8565b5090565b9056fea26469706673582212204ec42f3bc07ce2feab4391d5e5d7e687b95ca593a7af1f59ec196f048e83afc664736f6c63430006020033",
  "source": "pragma solidity ^0.6.2;\r\n// SPDX-License-Identifier: UNLICENSED\r\nimport \"./ERC20CARAT.sol\";\r\n\r\ncontract CryptogalleryV2 {\r\n\r\n    address payable public owner;\r\n    uint uid;\r\n    ERC20CARAT public tokenContract;\r\n    uint256 public tokenPrice;\r\n    uint256 public tokensSold;\r\n\r\n    struct artDetails {        \r\n        address artistAddress;\r\n        address owner;\r\n        string artistName;\r\n        string description;\r\n        uint price;\r\n        uint id;\r\n    }\r\n    \r\n    mapping(uint => artDetails) public artData;\r\n    mapping(uint => bool) public artOnSale;\r\n\r\n    mapping(address => uint[]) public artOwners; //Mapping to hold the list of uids bought by a buyer.\r\n    mapping(address => uint[]) public artSellers; //Mapping to hold the list of uids sold by an artist.\r\n\r\n    // mapping(address => string) public userNames;\r\n    mapping(address => int) public users;\r\n\r\n    modifier onlyRegisteredUser {\r\n        require(users[msg.sender] == 1, \"This user is not registered.\");\r\n        _;\r\n    }\r\n\r\n    modifier onlyArtist (uint artId) {\r\n        require(artData[artId].artistAddress == msg.sender);\r\n        _;\r\n    }\r\n\r\n\r\n    constructor (ERC20CARAT _tokenContract, uint256 _tokenPrice) public  {\r\n        owner = msg.sender; // Deployer of the application.\r\n        tokenContract = _tokenContract;\r\n        tokenPrice = _tokenPrice;\r\n        uid = 100;\r\n    }\r\n\r\n    function register() external {\r\n        require(users[msg.sender] != 1, \"This user is already registered.\");\r\n        users[msg.sender] = 1;\r\n        tokenContract.transferFrom(owner, msg.sender, 100);\r\n    }\r\n    \r\n    function addArt(uint id, string calldata description, uint price) external onlyRegisteredUser returns(uint artuid) {\r\n        artDetails memory art;\r\n        art.id = id; // Generates a unique identifier for the art being added\r\n        art.artistAddress = msg.sender;\r\n        art.description = description;\r\n        art.price = price;\r\n        art.owner = msg.sender;\r\n        artData[id] = art;\r\n\r\n        artOnSale[id] = true;\r\n\r\n        uid = uid + 1; // Increment uid for future additions.\r\n        return id; // Return the unique id created for the art.\r\n    }\r\n\r\n    function purchaseArt(uint artId, uint price) external onlyRegisteredUser payable  returns(bool success){\r\n        // Check if there is sufficient balance for the purchase\r\n        // require(msg.value == artData[artId].price);\r\n        // require(msg.value <= address(msg.sender).balance);\r\n\r\n        address artist = artData[artId].artistAddress;\r\n        // artData[artId].artistAddress.transfer(msg.value);\r\n        tokenContract.transferFrom(msg.sender, artist, price);\r\n        // payable(artist).transfer(msg.value);\r\n\r\n        artOwners[msg.sender].push(artId);\r\n        artOnSale[artId] = false;\r\n\r\n        return true;\r\n    }\r\n\r\n    function getbalance() external view returns (uint balance){\r\n        return address(this).balance;\r\n    }\r\n\r\n    function manageArt(uint artId, uint8 updatedPrice) external onlyArtist(artId) returns(bool success){\r\n        require(artOnSale[artId] == true);\r\n        artData[artId].price = updatedPrice;\r\n        return true;\r\n    }\r\n    \r\n}",
  "sourcePath": "D:\\crypto-galary\\WebApp\\cryptogallery-contract\\contracts\\CryptogalleryV2.sol",
  "compiler": {
    "name": "solc",
    "version": "0.6.2+commit.bacdbe57.Emscripten.clang"
  },
  "schemaVersion": "3.4.5",
  "updatedAt": "2022-05-09T01:28:55.966Z",
  "networkType": "ethereum",
  "devdoc": {
    "methods": {}
  },
  "userdoc": {
    "methods": {}
  }
}