{
  "contractName": "CryptogalleryV2",
  "abi": [
    {
      "inputs": [
        {
          "internalType": "contract ERC20CARAT",
          "name": "_tokenContract",
          "type": "address"
        },
        {
          "internalType": "uint256",
          "name": "_tokenPrice",
          "type": "uint256"
        }
      ],
      "stateMutability": "nonpayable",
      "type": "constructor"
    },
    {
      "anonymous": false,
      "inputs": [
        {
          "indexed": false,
          "internalType": "uint256",
          "name": "id",
          "type": "uint256"
        },
        {
          "indexed": false,
          "internalType": "uint256",
          "name": "price",
          "type": "uint256"
        },
        {
          "indexed": false,
          "internalType": "address",
          "name": "owner",
          "type": "address"
        }
      ],
      "name": "artAdded",
      "type": "event"
    },
    {
      "anonymous": false,
      "inputs": [
        {
          "indexed": false,
          "internalType": "uint256",
          "name": "id",
          "type": "uint256"
        },
        {
          "indexed": false,
          "internalType": "address",
          "name": "owner",
          "type": "address"
        },
        {
          "indexed": false,
          "internalType": "address",
          "name": "artistAddress",
          "type": "address"
        },
        {
          "indexed": false,
          "internalType": "bool",
          "name": "success",
          "type": "bool"
        }
      ],
      "name": "artPurchased",
      "type": "event"
    },
    {
      "anonymous": false,
      "inputs": [
        {
          "indexed": false,
          "internalType": "uint256",
          "name": "id",
          "type": "uint256"
        },
        {
          "indexed": false,
          "internalType": "address",
          "name": "owner",
          "type": "address"
        },
        {
          "indexed": false,
          "internalType": "bool",
          "name": "success",
          "type": "bool"
        }
      ],
      "name": "artUpdated",
      "type": "event"
    },
    {
      "inputs": [],
      "name": "admin",
      "outputs": [
        {
          "internalType": "address payable",
          "name": "",
          "type": "address"
        }
      ],
      "stateMutability": "view",
      "type": "function",
      "constant": true
    },
    {
      "inputs": [
        {
          "internalType": "uint256",
          "name": "",
          "type": "uint256"
        }
      ],
      "name": "artData",
      "outputs": [
        {
          "internalType": "address",
          "name": "owner",
          "type": "address"
        },
        {
          "internalType": "address",
          "name": "artistAddress",
          "type": "address"
        },
        {
          "internalType": "string",
          "name": "description",
          "type": "string"
        },
        {
          "internalType": "uint256",
          "name": "price",
          "type": "uint256"
        },
        {
          "internalType": "uint256",
          "name": "id",
          "type": "uint256"
        }
      ],
      "stateMutability": "view",
      "type": "function",
      "constant": true
    },
    {
      "inputs": [
        {
          "internalType": "uint256",
          "name": "",
          "type": "uint256"
        }
      ],
      "name": "artOnSale",
      "outputs": [
        {
          "internalType": "bool",
          "name": "",
          "type": "bool"
        }
      ],
      "stateMutability": "view",
      "type": "function",
      "constant": true
    },
    {
      "inputs": [],
      "name": "name",
      "outputs": [
        {
          "internalType": "string",
          "name": "",
          "type": "string"
        }
      ],
      "stateMutability": "view",
      "type": "function",
      "constant": true
    },
    {
      "inputs": [],
      "name": "tokenContract",
      "outputs": [
        {
          "internalType": "contract ERC20CARAT",
          "name": "",
          "type": "address"
        }
      ],
      "stateMutability": "view",
      "type": "function",
      "constant": true
    },
    {
      "inputs": [],
      "name": "tokenPrice",
      "outputs": [
        {
          "internalType": "uint256",
          "name": "",
          "type": "uint256"
        }
      ],
      "stateMutability": "view",
      "type": "function",
      "constant": true
    },
    {
      "inputs": [],
      "name": "tokensSold",
      "outputs": [
        {
          "internalType": "uint256",
          "name": "",
          "type": "uint256"
        }
      ],
      "stateMutability": "view",
      "type": "function",
      "constant": true
    },
    {
      "inputs": [],
      "name": "uid",
      "outputs": [
        {
          "internalType": "uint256",
          "name": "",
          "type": "uint256"
        }
      ],
      "stateMutability": "view",
      "type": "function",
      "constant": true
    },
    {
      "inputs": [
        {
          "internalType": "address",
          "name": "",
          "type": "address"
        }
      ],
      "name": "users",
      "outputs": [
        {
          "internalType": "int256",
          "name": "",
          "type": "int256"
        }
      ],
      "stateMutability": "view",
      "type": "function",
      "constant": true
    },
    {
      "inputs": [],
      "name": "register",
      "outputs": [],
      "stateMutability": "nonpayable",
      "type": "function"
    },
    {
      "inputs": [
        {
          "internalType": "string",
          "name": "description",
          "type": "string"
        },
        {
          "internalType": "uint256",
          "name": "price",
          "type": "uint256"
        }
      ],
      "name": "addArt",
      "outputs": [
        {
          "internalType": "uint256",
          "name": "artuid",
          "type": "uint256"
        }
      ],
      "stateMutability": "nonpayable",
      "type": "function"
    },
    {
      "inputs": [
        {
          "internalType": "uint256",
          "name": "artId",
          "type": "uint256"
        }
      ],
      "name": "purchaseArt",
      "outputs": [
        {
          "internalType": "bool",
          "name": "success",
          "type": "bool"
        }
      ],
      "stateMutability": "payable",
      "type": "function",
      "payable": true
    },
    {
      "inputs": [],
      "name": "getbalance",
      "outputs": [
        {
          "internalType": "uint256",
          "name": "balance",
          "type": "uint256"
        }
      ],
      "stateMutability": "view",
      "type": "function",
      "constant": true
    },
    {
      "inputs": [
        {
          "internalType": "uint256",
          "name": "artId",
          "type": "uint256"
        },
        {
          "internalType": "uint8",
          "name": "updatedPrice",
          "type": "uint8"
        }
      ],
      "name": "manageArt",
      "outputs": [
        {
          "internalType": "bool",
          "name": "success",
          "type": "bool"
        }
      ],
      "stateMutability": "nonpayable",
      "type": "function"
    }
  ],
  "bytecode": "0x60806040523480156200001157600080fd5b50604051620014e0380380620014e0833981810160405260408110156200003757600080fd5b81019080805190602001909291908051906020019092919050505033600160006101000a81548173ffffffffffffffffffffffffffffffffffffffff021916908373ffffffffffffffffffffffffffffffffffffffff1602179055506040518060400160405280601a81526020017f43727970746f2047616c6c657279204d61726b6574706c61636500000000000081525060009080519060200190620000e09291906200017a565b5033600160006101000a81548173ffffffffffffffffffffffffffffffffffffffff021916908373ffffffffffffffffffffffffffffffffffffffff16021790555081600360006101000a81548173ffffffffffffffffffffffffffffffffffffffff021916908373ffffffffffffffffffffffffffffffffffffffff160217905550806004819055506064600281905550505062000229565b828054600181600116156101000203166002900490600052602060002090601f016020900481019282601f10620001bd57805160ff1916838001178555620001ee565b82800160010185558215620001ee579182015b82811115620001ed578251825591602001919060010190620001d0565b5b509050620001fd919062000201565b5090565b6200022691905b808211156200022257600081600090555060010162000208565b5090565b90565b6112a780620002396000396000f3fe6080604052600436106100dd5760003560e01c806359e91e3c1161007f578063a87430ba11610059578063a87430ba146103fe578063e803845414610463578063f514ce361461058b578063f851a440146105b6576100dd565b806359e91e3c1461032d5780637ff9b596146103735780639ad8c4471461039e576100dd565b80633fe89882116100bb5780633fe898821461022d5780634d9b3d5d14610280578063518ab2a8146102ab57806355a373d6146102d6576100dd565b806306fdde03146100e25780631aa3a00814610172578063306ad3fd14610189575b600080fd5b3480156100ee57600080fd5b506100f761060d565b6040518080602001828103825283818151815260200191508051906020019080838360005b8381101561013757808201518184015260208101905061011c565b50505050905090810190601f1680156101645780820380516001836020036101000a031916815260200191505b509250505060405180910390f35b34801561017e57600080fd5b506101876106ab565b005b34801561019557600080fd5b50610217600480360360408110156101ac57600080fd5b81019080803590602001906401000000008111156101c957600080fd5b8201836020820111156101db57600080fd5b803590602001918460018302840111640100000000831117156101fd57600080fd5b9091929391929390803590602001909291905050506107a8565b6040518082815260200191505060405180910390f35b34801561023957600080fd5b506102666004803603602081101561025057600080fd5b8101908080359060200190929190505050610ad0565b604051808215151515815260200191505060405180910390f35b34801561028c57600080fd5b50610295610af0565b6040518082815260200191505060405180910390f35b3480156102b757600080fd5b506102c0610af8565b6040518082815260200191505060405180910390f35b3480156102e257600080fd5b506102eb610afe565b604051808273ffffffffffffffffffffffffffffffffffffffff1673ffffffffffffffffffffffffffffffffffffffff16815260200191505060405180910390f35b6103596004803603602081101561034357600080fd5b8101908080359060200190929190505050610b24565b604051808215151515815260200191505060405180910390f35b34801561037f57600080fd5b50610388610eaf565b6040518082815260200191505060405180910390f35b3480156103aa57600080fd5b506103e4600480360360408110156103c157600080fd5b8101908080359060200190929190803560ff169060200190929190505050610eb5565b604051808215151515815260200191505060405180910390f35b34801561040a57600080fd5b5061044d6004803603602081101561042157600080fd5b81019080803573ffffffffffffffffffffffffffffffffffffffff169060200190929190505050610ff8565b6040518082815260200191505060405180910390f35b34801561046f57600080fd5b5061049c6004803603602081101561048657600080fd5b8101908080359060200190929190505050611010565b604051808673ffffffffffffffffffffffffffffffffffffffff1673ffffffffffffffffffffffffffffffffffffffff1681526020018573ffffffffffffffffffffffffffffffffffffffff1673ffffffffffffffffffffffffffffffffffffffff16815260200180602001848152602001838152602001828103825285818151815260200191508051906020019080838360005b8381101561054c578082015181840152602081019050610531565b50505050905090810190601f1680156105795780820380516001836020036101000a031916815260200191505b50965050505050505060405180910390f35b34801561059757600080fd5b506105a061111e565b6040518082815260200191505060405180910390f35b3480156105c257600080fd5b506105cb611124565b604051808273ffffffffffffffffffffffffffffffffffffffff1673ffffffffffffffffffffffffffffffffffffffff16815260200191505060405180910390f35b60008054600181600116156101000203166002900480601f0160208091040260200160405190810160405280929190818152602001828054600181600116156101000203166002900480156106a35780601f10610678576101008083540402835291602001916106a3565b820191906000526020600020905b81548152906001019060200180831161068657829003601f168201915b505050505081565b6001600860003373ffffffffffffffffffffffffffffffffffffffff1673ffffffffffffffffffffffffffffffffffffffff168152602001908152602001600020541415610761576040517f08c379a00000000000000000000000000000000000000000000000000000000081526004018080602001828103825260208152602001807f54686973207573657220697320616c726561647920726567697374657265642e81525060200191505060405180910390fd5b6001600860003373ffffffffffffffffffffffffffffffffffffffff1673ffffffffffffffffffffffffffffffffffffffff16815260200190815260200160002081905550565b60006001600860003373ffffffffffffffffffffffffffffffffffffffff1673ffffffffffffffffffffffffffffffffffffffff168152602001908152602001600020541461085f576040517f08c379a000000000000000000000000000000000000000000000000000000000815260040180806020018281038252601c8152602001807f546869732075736572206973206e6f7420726567697374657265642e0000000081525060200191505060405180910390fd5b61086761114a565b60016002540160028190555060025481608001818152505084848080601f016020809104026020016040519081016040528093929190818152602001838380828437600081840152601f19601f8201169050808301925050505050505081604001819052508281606001818152505033816000019073ffffffffffffffffffffffffffffffffffffffff16908173ffffffffffffffffffffffffffffffffffffffff168152505033816020019073ffffffffffffffffffffffffffffffffffffffff16908173ffffffffffffffffffffffffffffffffffffffff16815250508060066000600254815260200190815260200160002060008201518160000160006101000a81548173ffffffffffffffffffffffffffffffffffffffff021916908373ffffffffffffffffffffffffffffffffffffffff16021790555060208201518160010160006101000a81548173ffffffffffffffffffffffffffffffffffffffff021916908373ffffffffffffffffffffffffffffffffffffffff1602179055506040820151816002019080519060200190610a069291906111a5565b506060820151816003015560808201518160040155905050600160076000600254815260200190815260200160002060006101000a81548160ff0219169083151502179055507f35fccf665f1d176fe29d99d69f56801756bfbecc47d9f1155dc426bf8646c9f26002548433604051808481526020018381526020018273ffffffffffffffffffffffffffffffffffffffff1673ffffffffffffffffffffffffffffffffffffffff168152602001935050505060405180910390a180608001519150509392505050565b60076020528060005260406000206000915054906101000a900460ff1681565b600047905090565b60055481565b600360009054906101000a900473ffffffffffffffffffffffffffffffffffffffff1681565b60006001600860003373ffffffffffffffffffffffffffffffffffffffff1673ffffffffffffffffffffffffffffffffffffffff1681526020019081526020016000205414610bdb576040517f08c379a000000000000000000000000000000000000000000000000000000000815260040180806020018281038252601c8152602001807f546869732075736572206973206e6f7420726567697374657265642e0000000081525060200191505060405180910390fd5b3373ffffffffffffffffffffffffffffffffffffffff166006600084815260200190815260200160002060000160009054906101000a900473ffffffffffffffffffffffffffffffffffffffff1673ffffffffffffffffffffffffffffffffffffffff161415610c96576040517f08c379a000000000000000000000000000000000000000000000000000000000815260040180806020018281038252602781526020018061124b6027913960400191505060405180910390fd5b6007600083815260200190815260200160002060009054906101000a900460ff16610cc057600080fd5b60006006600084815260200190815260200160002060000160009054906101000a900473ffffffffffffffffffffffffffffffffffffffff1690508073ffffffffffffffffffffffffffffffffffffffff166108fc349081150290604051600060405180830381858888f19350505050158015610d41573d6000803e3d6000fd5b5060006007600085815260200190815260200160002060006101000a81548160ff021916908315150217905550336006600085815260200190815260200160002060000160006101000a81548173ffffffffffffffffffffffffffffffffffffffff021916908373ffffffffffffffffffffffffffffffffffffffff1602179055507fbfd4cad08816d37e3c668428b01d749be311c36a490947da0531ff23a022b0db83336006600087815260200190815260200160002060010160009054906101000a900473ffffffffffffffffffffffffffffffffffffffff166001604051808581526020018473ffffffffffffffffffffffffffffffffffffffff1673ffffffffffffffffffffffffffffffffffffffff1681526020018373ffffffffffffffffffffffffffffffffffffffff1673ffffffffffffffffffffffffffffffffffffffff1681526020018215151515815260200194505050505060405180910390a16001915050919050565b60045481565b6000823373ffffffffffffffffffffffffffffffffffffffff166006600083815260200190815260200160002060000160009054906101000a900473ffffffffffffffffffffffffffffffffffffffff1673ffffffffffffffffffffffffffffffffffffffff1614610f2657600080fd5b600115156007600086815260200190815260200160002060009054906101000a900460ff16151514610f5757600080fd5b8260ff1660066000868152602001908152602001600020600301819055507f49380667d6452d322e571eab2929747570f9e946a020f39c4ffcf478d8b2e3af84336001604051808481526020018373ffffffffffffffffffffffffffffffffffffffff1673ffffffffffffffffffffffffffffffffffffffff16815260200182151515158152602001935050505060405180910390a1600191505092915050565b60086020528060005260406000206000915090505481565b60066020528060005260406000206000915090508060000160009054906101000a900473ffffffffffffffffffffffffffffffffffffffff16908060010160009054906101000a900473ffffffffffffffffffffffffffffffffffffffff1690806002018054600181600116156101000203166002900480601f0160208091040260200160405190810160405280929190818152602001828054600181600116156101000203166002900480156111085780601f106110dd57610100808354040283529160200191611108565b820191906000526020600020905b8154815290600101906020018083116110eb57829003601f168201915b5050505050908060030154908060040154905085565b60025481565b600160009054906101000a900473ffffffffffffffffffffffffffffffffffffffff1681565b6040518060a00160405280600073ffffffffffffffffffffffffffffffffffffffff168152602001600073ffffffffffffffffffffffffffffffffffffffff1681526020016060815260200160008152602001600081525090565b828054600181600116156101000203166002900490600052602060002090601f016020900481019282601f106111e657805160ff1916838001178555611214565b82800160010185558215611214579182015b828111156112135782518255916020019190600101906111f8565b5b5090506112219190611225565b5090565b61124791905b8082111561124357600081600090555060010161122b565b5090565b9056fe427579657220697320616c726561647920746865206f776e6572206f662074686973204172742ea26469706673582212202097c77935c2770bac00fa550bb1b574dd4166bc3a9fc55a7919362352cb24c864736f6c63430006020033",
  "source": "pragma solidity ^0.6.2;\r\n// SPDX-License-Identifier: UNLICENSED\r\nimport \"./ERC20CARAT.sol\";\r\n\r\n\r\ncontract CryptogalleryV2 {\r\n\r\n    string public name;\r\n    address payable public admin;\r\n    uint public uid;\r\n    ERC20CARAT public tokenContract;\r\n    uint256 public tokenPrice;\r\n    uint256 public tokensSold;\r\n\r\n    struct artDetails {\r\n        address owner;\r\n        address artistAddress;\r\n        string description;\r\n        uint price;\r\n        uint id;\r\n    }\r\n\r\n    event artAdded(\r\n        uint id,\r\n        uint price,\r\n        address owner\r\n    );\r\n\r\n    event artPurchased(\r\n        uint id,\r\n        address owner,\r\n        address artistAddress,\r\n        bool success\r\n    );\r\n\r\n    event artUpdated(\r\n        uint id,\r\n        address owner,\r\n        bool success\r\n    );\r\n    \r\n    mapping(uint => artDetails) public artData;\r\n    mapping(uint => bool) public artOnSale;\r\n\r\n    mapping(address => int) public users;\r\n\r\n    modifier onlyRegisteredUser {\r\n        require(users[msg.sender] == 1, \"This user is not registered.\");\r\n        _;\r\n    }\r\n\r\n    modifier onlyArtist (uint artId) {\r\n        require(artData[artId].owner == msg.sender);\r\n        _;\r\n    }\r\n\r\n\r\n    constructor (ERC20CARAT _tokenContract, uint256 _tokenPrice) public  {\r\n        admin = msg.sender; // Deployer of the application.\r\n        name = \"Crypto Gallery Marketplace\";\r\n        admin = msg.sender;\r\n        tokenContract = _tokenContract;\r\n        tokenPrice = _tokenPrice;\r\n        uid = 100;\r\n    }\r\n\r\n    function register() external {\r\n        require(users[msg.sender] != 1, \"This user is already registered.\");\r\n        users[msg.sender] = 1;\r\n    }\r\n    \r\n    function addArt(string calldata description, uint price) external onlyRegisteredUser returns(uint artuid) {\r\n        artDetails memory art;\r\n        uid = uid + 1;\r\n        art.id = uid; // Generates a unique identifier for the art being added\r\n        art.description = description;\r\n        art.price = price;\r\n        art.owner = msg.sender;\r\n        art.artistAddress = msg.sender;\r\n        artData[uid] = art;\r\n\r\n        artOnSale[uid] = true;\r\n        emit artAdded(uid, price, msg.sender);\r\n        return art.id;\r\n    }\r\n\r\n    function purchaseArt(uint artId) external onlyRegisteredUser payable  returns(bool success){\r\n        // Check if there is sufficient balance for the purchase\r\n        // require(msg.value <= address(msg.sender).balance);\r\n        require(artData[artId].owner != msg.sender, \"Buyer is already the owner of this Art.\");\r\n        require(artOnSale[artId]);\r\n\r\n        address artist = artData[artId].owner;\r\n        payable(artist).transfer(msg.value);\r\n        \r\n        artOnSale[artId] = false;\r\n        artData[artId].owner = msg.sender;\r\n\r\n        emit artPurchased(artId, msg.sender, artData[artId].artistAddress, true);\r\n        return true;\r\n    }\r\n\r\n    function getbalance() external view returns (uint balance){\r\n        return address(this).balance;\r\n    }\r\n\r\n    function manageArt(uint artId, uint8 updatedPrice) external onlyArtist(artId) returns(bool success){\r\n        require(artOnSale[artId] == true);\r\n        artData[artId].price = updatedPrice;\r\n        emit artUpdated(artId, msg.sender, true);\r\n        return true;\r\n    }\r\n    \r\n}",
  "sourcePath": "D:\\crypto-galary\\WebApp\\cryptogallery-contract\\contracts\\CryptogalleryV2.sol",
  "compiler": {
    "name": "solc",
    "version": "0.6.2+commit.bacdbe57.Emscripten.clang"
  },
  "schemaVersion": "3.4.5",
  "updatedAt": "2022-05-08T22:30:42.759Z",
  "networkType": "ethereum",
  "devdoc": {
    "methods": {}
  },
  "userdoc": {
    "methods": {}
  }
}