{
  "contractName": "CryptogalleryV2",
  "abi": [
    {
      "inputs": [],
      "stateMutability": "nonpayable",
      "type": "constructor"
    },
    {
      "inputs": [
        {
          "internalType": "uint256",
          "name": "",
          "type": "uint256"
        }
      ],
      "name": "artData",
      "outputs": [
        {
          "internalType": "address payable",
          "name": "artistAddress",
          "type": "address"
        },
        {
          "internalType": "address",
          "name": "owner",
          "type": "address"
        },
        {
          "internalType": "string",
          "name": "artistName",
          "type": "string"
        },
        {
          "internalType": "string",
          "name": "description",
          "type": "string"
        },
        {
          "internalType": "uint8",
          "name": "price",
          "type": "uint8"
        },
        {
          "internalType": "uint256",
          "name": "id",
          "type": "uint256"
        },
        {
          "internalType": "uint256",
          "name": "artId",
          "type": "uint256"
        }
      ],
      "stateMutability": "view",
      "type": "function",
      "constant": true
    },
    {
      "inputs": [
        {
          "internalType": "uint256",
          "name": "",
          "type": "uint256"
        }
      ],
      "name": "artOnSale",
      "outputs": [
        {
          "internalType": "bool",
          "name": "",
          "type": "bool"
        }
      ],
      "stateMutability": "view",
      "type": "function",
      "constant": true
    },
    {
      "inputs": [
        {
          "internalType": "address",
          "name": "",
          "type": "address"
        },
        {
          "internalType": "uint256",
          "name": "",
          "type": "uint256"
        }
      ],
      "name": "artOwners",
      "outputs": [
        {
          "internalType": "uint256",
          "name": "",
          "type": "uint256"
        }
      ],
      "stateMutability": "view",
      "type": "function",
      "constant": true
    },
    {
      "inputs": [
        {
          "internalType": "address",
          "name": "",
          "type": "address"
        },
        {
          "internalType": "uint256",
          "name": "",
          "type": "uint256"
        }
      ],
      "name": "artSellers",
      "outputs": [
        {
          "internalType": "uint256",
          "name": "",
          "type": "uint256"
        }
      ],
      "stateMutability": "view",
      "type": "function",
      "constant": true
    },
    {
      "inputs": [],
      "name": "owner",
      "outputs": [
        {
          "internalType": "address payable",
          "name": "",
          "type": "address"
        }
      ],
      "stateMutability": "view",
      "type": "function",
      "constant": true
    },
    {
      "inputs": [
        {
          "internalType": "address",
          "name": "",
          "type": "address"
        }
      ],
      "name": "users",
      "outputs": [
        {
          "internalType": "int256",
          "name": "",
          "type": "int256"
        }
      ],
      "stateMutability": "view",
      "type": "function",
      "constant": true
    },
    {
      "inputs": [],
      "name": "register",
      "outputs": [],
      "stateMutability": "nonpayable",
      "type": "function"
    },
    {
      "inputs": [
        {
          "internalType": "string",
          "name": "description",
          "type": "string"
        },
        {
          "internalType": "uint8",
          "name": "price",
          "type": "uint8"
        }
      ],
      "name": "addArt",
      "outputs": [
        {
          "internalType": "uint256",
          "name": "artuid",
          "type": "uint256"
        }
      ],
      "stateMutability": "nonpayable",
      "type": "function"
    },
    {
      "inputs": [
        {
          "internalType": "uint256",
          "name": "artId",
          "type": "uint256"
        }
      ],
      "name": "purchaseArt",
      "outputs": [
        {
          "internalType": "bool",
          "name": "success",
          "type": "bool"
        }
      ],
      "stateMutability": "payable",
      "type": "function",
      "payable": true
    },
    {
      "inputs": [],
      "name": "getbalance",
      "outputs": [
        {
          "internalType": "uint256",
          "name": "balance",
          "type": "uint256"
        }
      ],
      "stateMutability": "view",
      "type": "function",
      "constant": true
    },
    {
      "inputs": [
        {
          "internalType": "uint256",
          "name": "artId",
          "type": "uint256"
        },
        {
          "internalType": "uint8",
          "name": "updatedPrice",
          "type": "uint8"
        }
      ],
      "name": "manageArt",
      "outputs": [
        {
          "internalType": "bool",
          "name": "success",
          "type": "bool"
        }
      ],
      "stateMutability": "nonpayable",
      "type": "function"
    }
  ],
  "bytecode": "0x608060405234801561001057600080fd5b50336000806101000a81548173ffffffffffffffffffffffffffffffffffffffff021916908373ffffffffffffffffffffffffffffffffffffffff160217905550606460018190555061104d806100686000396000f3fe60806040526004361061009c5760003560e01c80638da5cb5b116100645780638da5cb5b146101eb5780639ad8c44714610242578063a87430ba146102a2578063afd30e8214610307578063e6b1e8f014610376578063e80384541461041d5761009c565b80631aa3a008146100a15780633fe89882146100b85780634d9b3d5d1461010b578063513911211461013657806359e91e3c146101a5575b600080fd5b3480156100ad57600080fd5b506100b66105be565b005b3480156100c457600080fd5b506100f1600480360360208110156100db57600080fd5b81019080803590602001909291905050506106bb565b604051808215151515815260200191505060405180910390f35b34801561011757600080fd5b506101206106db565b6040518082815260200191505060405180910390f35b34801561014257600080fd5b5061018f6004803603604081101561015957600080fd5b81019080803573ffffffffffffffffffffffffffffffffffffffff169060200190929190803590602001909291905050506106e3565b6040518082815260200191505060405180910390f35b6101d1600480360360208110156101bb57600080fd5b8101908080359060200190929190505050610711565b604051808215151515815260200191505060405180910390f35b3480156101f757600080fd5b5061020061090a565b604051808273ffffffffffffffffffffffffffffffffffffffff1673ffffffffffffffffffffffffffffffffffffffff16815260200191505060405180910390f35b34801561024e57600080fd5b506102886004803603604081101561026557600080fd5b8101908080359060200190929190803560ff16906020019092919050505061092f565b604051808215151515815260200191505060405180910390f35b3480156102ae57600080fd5b506102f1600480360360208110156102c557600080fd5b81019080803573ffffffffffffffffffffffffffffffffffffffff169060200190929190505050610a0b565b6040518082815260200191505060405180910390f35b34801561031357600080fd5b506103606004803603604081101561032a57600080fd5b81019080803573ffffffffffffffffffffffffffffffffffffffff16906020019092919080359060200190929190505050610a23565b6040518082815260200191505060405180910390f35b34801561038257600080fd5b506104076004803603604081101561039957600080fd5b81019080803590602001906401000000008111156103b657600080fd5b8201836020820111156103c857600080fd5b803590602001918460018302840111640100000000831117156103ea57600080fd5b9091929391929390803560ff169060200190929190505050610a51565b6040518082815260200191505060405180910390f35b34801561042957600080fd5b506104566004803603602081101561044057600080fd5b8101908080359060200190929190505050610d47565b604051808873ffffffffffffffffffffffffffffffffffffffff1673ffffffffffffffffffffffffffffffffffffffff1681526020018773ffffffffffffffffffffffffffffffffffffffff1673ffffffffffffffffffffffffffffffffffffffff16815260200180602001806020018660ff1660ff168152602001858152602001848152602001838103835288818151815260200191508051906020019080838360005b838110156105165780820151818401526020810190506104fb565b50505050905090810190601f1680156105435780820380516001836020036101000a031916815260200191505b50838103825287818151815260200191508051906020019080838360005b8381101561057c578082015181840152602081019050610561565b50505050905090810190601f1680156105a95780820380516001836020036101000a031916815260200191505b50995050505050505050505060405180910390f35b6001600660003373ffffffffffffffffffffffffffffffffffffffff1673ffffffffffffffffffffffffffffffffffffffff168152602001908152602001600020541415610674576040517f08c379a00000000000000000000000000000000000000000000000000000000081526004018080602001828103825260208152602001807f54686973207573657220697320616c726561647920726567697374657265642e81525060200191505060405180910390fd5b6001600660003373ffffffffffffffffffffffffffffffffffffffff1673ffffffffffffffffffffffffffffffffffffffff16815260200190815260200160002081905550565b60036020528060005260406000206000915054906101000a900460ff1681565b600047905090565b600560205281600052604060002081815481106106fc57fe5b90600052602060002001600091509150505481565b60006001600660003373ffffffffffffffffffffffffffffffffffffffff1673ffffffffffffffffffffffffffffffffffffffff16815260200190815260200160002054146107c8576040517f08c379a000000000000000000000000000000000000000000000000000000000815260040180806020018281038252601c8152602001807f546869732075736572206973206e6f7420726567697374657265642e0000000081525060200191505060405180910390fd5b3373ffffffffffffffffffffffffffffffffffffffff16313411156107ec57600080fd5b60006002600084815260200190815260200160002060000160009054906101000a900473ffffffffffffffffffffffffffffffffffffffff1690508073ffffffffffffffffffffffffffffffffffffffff166108fc349081150290604051600060405180830381858888f1935050505015801561086d573d6000803e3d6000fd5b50600460003373ffffffffffffffffffffffffffffffffffffffff1673ffffffffffffffffffffffffffffffffffffffff16815260200190815260200160002083908060018154018082558091505060019003906000526020600020016000909190919091505560006003600085815260200190815260200160002060006101000a81548160ff0219169083151502179055506001915050919050565b6000809054906101000a900473ffffffffffffffffffffffffffffffffffffffff1681565b6000823373ffffffffffffffffffffffffffffffffffffffff166002600083815260200190815260200160002060000160009054906101000a900473ffffffffffffffffffffffffffffffffffffffff1673ffffffffffffffffffffffffffffffffffffffff16146109a057600080fd5b600115156003600086815260200190815260200160002060009054906101000a900460ff161515146109d157600080fd5b826002600086815260200190815260200160002060040160006101000a81548160ff021916908360ff160217905550600191505092915050565b60066020528060005260406000206000915090505481565b60046020528160005260406000208181548110610a3c57fe5b90600052602060002001600091509150505481565b60006001600660003373ffffffffffffffffffffffffffffffffffffffff1673ffffffffffffffffffffffffffffffffffffffff1681526020019081526020016000205414610b08576040517f08c379a000000000000000000000000000000000000000000000000000000000815260040180806020018281038252601c8152602001807f546869732075736572206973206e6f7420726567697374657265642e0000000081525060200191505060405180910390fd5b610b10610f06565b6001548160a001818152505033816000019073ffffffffffffffffffffffffffffffffffffffff16908173ffffffffffffffffffffffffffffffffffffffff168152505084848080601f016020809104026020016040519081016040528093929190818152602001838380828437600081840152601f19601f82011690508083019250505050505050816060018190525082816080019060ff16908160ff168152505033816020019073ffffffffffffffffffffffffffffffffffffffff16908173ffffffffffffffffffffffffffffffffffffffff16815250508060026000600154815260200190815260200160002060008201518160000160006101000a81548173ffffffffffffffffffffffffffffffffffffffff021916908373ffffffffffffffffffffffffffffffffffffffff16021790555060208201518160010160006101000a81548173ffffffffffffffffffffffffffffffffffffffff021916908373ffffffffffffffffffffffffffffffffffffffff1602179055506040820151816002019080519060200190610cab929190610f72565b506060820151816003019080519060200190610cc8929190610f72565b5060808201518160040160006101000a81548160ff021916908360ff16021790555060a0820151816005015560c08201518160060155905050600160036000600154815260200190815260200160002060006101000a81548160ff02191690831515021790555060018054016001819055506001549150509392505050565b60026020528060005260406000206000915090508060000160009054906101000a900473ffffffffffffffffffffffffffffffffffffffff16908060010160009054906101000a900473ffffffffffffffffffffffffffffffffffffffff1690806002018054600181600116156101000203166002900480601f016020809104026020016040519081016040528092919081815260200182805460018160011615610100020316600290048015610e3f5780601f10610e1457610100808354040283529160200191610e3f565b820191906000526020600020905b815481529060010190602001808311610e2257829003601f168201915b505050505090806003018054600181600116156101000203166002900480601f016020809104026020016040519081016040528092919081815260200182805460018160011615610100020316600290048015610edd5780601f10610eb257610100808354040283529160200191610edd565b820191906000526020600020905b815481529060010190602001808311610ec057829003601f168201915b5050505050908060040160009054906101000a900460ff16908060050154908060060154905087565b6040518060e00160405280600073ffffffffffffffffffffffffffffffffffffffff168152602001600073ffffffffffffffffffffffffffffffffffffffff1681526020016060815260200160608152602001600060ff16815260200160008152602001600081525090565b828054600181600116156101000203166002900490600052602060002090601f016020900481019282601f10610fb357805160ff1916838001178555610fe1565b82800160010185558215610fe1579182015b82811115610fe0578251825591602001919060010190610fc5565b5b509050610fee9190610ff2565b5090565b61101491905b80821115611010576000816000905550600101610ff8565b5090565b9056fea2646970667358221220d0e174535bd99d89cdf5aacc48f6be222fda6691059e11727d1e0a7d10f5647064736f6c63430006020033",
  "source": "pragma solidity ^0.6.2;\r\ncontract CryptogalleryV2 {\r\n\r\n    address payable public owner;\r\n    uint uid;\r\n\r\n    struct artDetails {        \r\n        address payable artistAddress;\r\n        address owner;\r\n        string artistName;\r\n        string description;\r\n        uint8 price;\r\n        uint id;\r\n        uint artId;\r\n    }\r\n    \r\n    mapping(uint => artDetails) public artData;\r\n    mapping(uint => bool) public artOnSale;\r\n\r\n    mapping(address => uint[]) public artOwners; //Mapping to hold the list of uids bought by a buyer.\r\n    mapping(address => uint[]) public artSellers; //Mapping to hold the list of uids sold by an artist.\r\n\r\n    // mapping(address => string) public userNames;\r\n    mapping(address => int) public users;\r\n\r\n    modifier onlyRegisteredUser {\r\n        require(users[msg.sender] == 1, \"This user is not registered.\");\r\n        _;\r\n    }\r\n\r\n    modifier onlyArtist (uint artId) {\r\n        require(artData[artId].artistAddress == msg.sender);\r\n        _;\r\n    }\r\n\r\n\r\n    constructor () public  {\r\n        owner = msg.sender; // Deployer of the application.\r\n        uid = 100;\r\n    }\r\n\r\n    function register() external {\r\n        require(users[msg.sender] != 1, \"This user is already registered.\");\r\n        users[msg.sender] = 1;\r\n    }\r\n    \r\n    function addArt(string calldata description, uint8 price) external onlyRegisteredUser returns(uint artuid) {\r\n        artDetails memory art;\r\n        art.id = uid; // Generates a unique identifier for the art being added\r\n        art.artistAddress = msg.sender;\r\n        // art.artistName = userNames[msg.sender];\r\n        art.description = description;\r\n        art.price = price;\r\n        art.owner = msg.sender;\r\n        artData[uid] = art;\r\n\r\n        artOnSale[uid] = true;\r\n\r\n        uid = uid + 1; // Increment uid for future additions.\r\n        // uid = artData.length + 1; // Check this later\r\n        return uid; // Return the unique id created for the art.\r\n    }\r\n\r\n    function purchaseArt(uint artId) external onlyRegisteredUser payable  returns(bool success){\r\n        // Check if there is sufficient balance for the purchase\r\n        // require(msg.value == artData[artId].price);\r\n        require(msg.value <= address(msg.sender).balance);\r\n\r\n        address artist = artData[artId].artistAddress;\r\n        // artData[artId].artistAddress.transfer(msg.value);\r\n        payable(artist).transfer(msg.value);\r\n\r\n        artOwners[msg.sender].push(artId);\r\n        artOnSale[artId] = false;\r\n\r\n        return true;\r\n    }\r\n\r\n    function getbalance() external view returns (uint balance){\r\n        return address(this).balance;\r\n    }\r\n\r\n    function manageArt(uint artId, uint8 updatedPrice) external onlyArtist(artId) returns(bool success){\r\n        require(artOnSale[artId] == true);\r\n        artData[artId].price = updatedPrice;\r\n        return true;\r\n    }\r\n    \r\n}",
  "sourcePath": "D:\\crypto-galary\\WebApp\\cryptogallery-contract\\contracts\\CryptogalleryV2.sol",
  "compiler": {
    "name": "solc",
    "version": "0.6.2+commit.bacdbe57.Emscripten.clang"
  },
  "schemaVersion": "3.4.5",
  "updatedAt": "2022-04-18T02:34:58.818Z",
  "networkType": "ethereum",
  "devdoc": {
    "methods": {}
  },
  "userdoc": {
    "methods": {}
  }
}