{
  "contractName": "CryptogalleryV1",
  "abi": [
    {
      "inputs": [],
      "stateMutability": "nonpayable",
      "type": "constructor"
    },
    {
      "inputs": [
        {
          "internalType": "address",
          "name": "",
          "type": "address"
        }
      ],
      "name": "Buyers",
      "outputs": [
        {
          "internalType": "uint256",
          "name": "",
          "type": "uint256"
        }
      ],
      "stateMutability": "view",
      "type": "function"
    },
    {
      "inputs": [
        {
          "internalType": "address",
          "name": "",
          "type": "address"
        }
      ],
      "name": "artOwners",
      "outputs": [
        {
          "internalType": "uint256",
          "name": "id",
          "type": "uint256"
        },
        {
          "internalType": "uint256",
          "name": "price",
          "type": "uint256"
        }
      ],
      "stateMutability": "view",
      "type": "function"
    },
    {
      "inputs": [],
      "name": "owner",
      "outputs": [
        {
          "internalType": "address payable",
          "name": "",
          "type": "address"
        }
      ],
      "stateMutability": "view",
      "type": "function"
    },
    {
      "inputs": [
        {
          "internalType": "uint256",
          "name": "artId",
          "type": "uint256"
        }
      ],
      "name": "purchaseArt",
      "outputs": [],
      "stateMutability": "payable",
      "type": "function"
    },
    {
      "inputs": [],
      "name": "getbalance",
      "outputs": [
        {
          "internalType": "uint256",
          "name": "balance",
          "type": "uint256"
        }
      ],
      "stateMutability": "view",
      "type": "function"
    }
  ],
  "bytecode": "0x608060405234801561001057600080fd5b50336000806101000a81548173ffffffffffffffffffffffffffffffffffffffff021916908373ffffffffffffffffffffffffffffffffffffffff1602179055506103a0806100606000396000f3fe60806040526004361061004a5760003560e01c80632636094c1461004f5780634d9b3d5d146100bb57806359e91e3c146100e65780637dca429f146101145780638da5cb5b14610179575b600080fd5b34801561005b57600080fd5b5061009e6004803603602081101561007257600080fd5b81019080803573ffffffffffffffffffffffffffffffffffffffff1690602001909291905050506101d0565b604051808381526020018281526020019250505060405180910390f35b3480156100c757600080fd5b506100d06101f4565b6040518082815260200191505060405180910390f35b610112600480360360208110156100fc57600080fd5b8101908080359060200190929190505050610234565b005b34801561012057600080fd5b506101636004803603602081101561013757600080fd5b81019080803573ffffffffffffffffffffffffffffffffffffffff16906020019092919050505061032d565b6040518082815260200191505060405180910390f35b34801561018557600080fd5b5061018e610345565b604051808273ffffffffffffffffffffffffffffffffffffffff1673ffffffffffffffffffffffffffffffffffffffff16815260200191505060405180910390f35b60016020528060005260406000206000915090508060000154908060010154905082565b60008060009054906101000a900473ffffffffffffffffffffffffffffffffffffffff1673ffffffffffffffffffffffffffffffffffffffff1631905090565b6000809054906101000a900473ffffffffffffffffffffffffffffffffffffffff1673ffffffffffffffffffffffffffffffffffffffff166108fc349081150290604051600060405180830381858888f1935050505015801561029b573d6000803e3d6000fd5b5080600160003373ffffffffffffffffffffffffffffffffffffffff1673ffffffffffffffffffffffffffffffffffffffff1681526020019081526020016000206000018190555034600160003373ffffffffffffffffffffffffffffffffffffffff1673ffffffffffffffffffffffffffffffffffffffff1681526020019081526020016000206001018190555050565b60026020528060005260406000206000915090505481565b6000809054906101000a900473ffffffffffffffffffffffffffffffffffffffff168156fea26469706673582212201e429208c059ace3980642c4a2ba69128599c10783da9afefbeae2c9f0e68eb764736f6c63430006020033",
  "source": "pragma solidity ^0.6.2;\r\ncontract CryptogalleryV1 {\r\n\r\n    address payable public owner;\r\n    struct artDetails {                  \r\n        uint id;\r\n        address artistAddress;\r\n        string artistName;\r\n        string description;\r\n        uint price;\r\n    }\r\n\r\n    struct artDetailsTemp {                  \r\n        uint id;\r\n        uint price;\r\n    }\r\n    \r\n    mapping(address => artDetailsTemp) public artOwners;\r\n    mapping(address => uint) public Buyers;\r\n\r\n\r\n    constructor () public  {\r\n        owner = msg.sender;\r\n    }\r\n    \r\n     \r\n    function purchaseArt(uint artId) payable external{\r\n        owner.transfer(msg.value);\r\n        artOwners[msg.sender].id = artId;\r\n        artOwners[msg.sender].price = msg.value;\r\n    }\r\n\r\n    function getbalance() public view returns (uint balance){\r\n        return owner.balance;\r\n    }\r\n    \r\n}",
  "sourcePath": "D:\\crypto-galary\\WebApp\\cryptogallery-contract\\contracts\\cryptogalleryV1.sol",
  "compiler": {
    "name": "solc",
    "version": "0.6.2+commit.bacdbe57.Emscripten.clang"
  },
  "schemaVersion": "3.4.5",
  "updatedAt": "2022-04-18T00:48:50.300Z",
  "devdoc": {
    "methods": {}
  },
  "userdoc": {
    "methods": {}
  }
}