{
  "contractName": "CryptogalleryV2",
  "abi": [
    {
      "inputs": [
        {
          "internalType": "contract ERC20CARAT",
          "name": "_tokenContract",
          "type": "address"
        },
        {
          "internalType": "uint256",
          "name": "_tokenPrice",
          "type": "uint256"
        }
      ],
      "stateMutability": "nonpayable",
      "type": "constructor"
    },
    {
      "inputs": [
        {
          "internalType": "uint256",
          "name": "",
          "type": "uint256"
        }
      ],
      "name": "artData",
      "outputs": [
        {
          "internalType": "address",
          "name": "artistAddress",
          "type": "address"
        },
        {
          "internalType": "address",
          "name": "owner",
          "type": "address"
        },
        {
          "internalType": "string",
          "name": "description",
          "type": "string"
        },
        {
          "internalType": "uint256",
          "name": "price",
          "type": "uint256"
        },
        {
          "internalType": "uint256",
          "name": "id",
          "type": "uint256"
        }
      ],
      "stateMutability": "view",
      "type": "function",
      "constant": true
    },
    {
      "inputs": [
        {
          "internalType": "uint256",
          "name": "",
          "type": "uint256"
        }
      ],
      "name": "artOnSale",
      "outputs": [
        {
          "internalType": "bool",
          "name": "",
          "type": "bool"
        }
      ],
      "stateMutability": "view",
      "type": "function",
      "constant": true
    },
    {
      "inputs": [],
      "name": "owner",
      "outputs": [
        {
          "internalType": "address payable",
          "name": "",
          "type": "address"
        }
      ],
      "stateMutability": "view",
      "type": "function",
      "constant": true
    },
    {
      "inputs": [],
      "name": "tokenContract",
      "outputs": [
        {
          "internalType": "contract ERC20CARAT",
          "name": "",
          "type": "address"
        }
      ],
      "stateMutability": "view",
      "type": "function",
      "constant": true
    },
    {
      "inputs": [],
      "name": "tokenPrice",
      "outputs": [
        {
          "internalType": "uint256",
          "name": "",
          "type": "uint256"
        }
      ],
      "stateMutability": "view",
      "type": "function",
      "constant": true
    },
    {
      "inputs": [],
      "name": "tokensSold",
      "outputs": [
        {
          "internalType": "uint256",
          "name": "",
          "type": "uint256"
        }
      ],
      "stateMutability": "view",
      "type": "function",
      "constant": true
    },
    {
      "inputs": [
        {
          "internalType": "address",
          "name": "",
          "type": "address"
        }
      ],
      "name": "users",
      "outputs": [
        {
          "internalType": "int256",
          "name": "",
          "type": "int256"
        }
      ],
      "stateMutability": "view",
      "type": "function",
      "constant": true
    },
    {
      "inputs": [],
      "name": "register",
      "outputs": [],
      "stateMutability": "nonpayable",
      "type": "function"
    },
    {
      "inputs": [
        {
          "internalType": "uint256",
          "name": "id",
          "type": "uint256"
        },
        {
          "internalType": "string",
          "name": "description",
          "type": "string"
        },
        {
          "internalType": "uint256",
          "name": "price",
          "type": "uint256"
        }
      ],
      "name": "addArt",
      "outputs": [
        {
          "internalType": "uint256",
          "name": "artuid",
          "type": "uint256"
        }
      ],
      "stateMutability": "nonpayable",
      "type": "function"
    },
    {
      "inputs": [
        {
          "internalType": "uint256",
          "name": "artId",
          "type": "uint256"
        },
        {
          "internalType": "uint256",
          "name": "price",
          "type": "uint256"
        }
      ],
      "name": "purchaseArt",
      "outputs": [
        {
          "internalType": "bool",
          "name": "success",
          "type": "bool"
        }
      ],
      "stateMutability": "payable",
      "type": "function",
      "payable": true
    },
    {
      "inputs": [],
      "name": "getbalance",
      "outputs": [
        {
          "internalType": "uint256",
          "name": "balance",
          "type": "uint256"
        }
      ],
      "stateMutability": "view",
      "type": "function",
      "constant": true
    },
    {
      "inputs": [
        {
          "internalType": "uint256",
          "name": "artId",
          "type": "uint256"
        },
        {
          "internalType": "uint8",
          "name": "updatedPrice",
          "type": "uint8"
        }
      ],
      "name": "manageArt",
      "outputs": [
        {
          "internalType": "bool",
          "name": "success",
          "type": "bool"
        }
      ],
      "stateMutability": "nonpayable",
      "type": "function"
    }
  ],
  "bytecode": "0x608060405234801561001057600080fd5b506040516110e93803806110e98339818101604052604081101561003357600080fd5b810190808051906020019092919080519060200190929190505050336000806101000a81548173ffffffffffffffffffffffffffffffffffffffff021916908373ffffffffffffffffffffffffffffffffffffffff16021790555081600260006101000a81548173ffffffffffffffffffffffffffffffffffffffff021916908373ffffffffffffffffffffffffffffffffffffffff1602179055508060038190555060646001819055505050610ffa806100ef6000396000f3fe6080604052600436106100a75760003560e01c8063712590161161006457806371259016146102135780637ff9b596146102c15780638da5cb5b146102ec5780639ad8c44714610343578063a87430ba146103a3578063e803845414610408576100a7565b80631aa3a008146100ac5780633fe89882146100c357806346f57042146101165780634d9b3d5d14610166578063518ab2a81461019157806355a373d6146101bc575b600080fd5b3480156100b857600080fd5b506100c1610530565b005b3480156100cf57600080fd5b506100fc600480360360208110156100e657600080fd5b8101908080359060200190929190505050610769565b604051808215151515815260200191505060405180910390f35b61014c6004803603604081101561012c57600080fd5b810190808035906020019092919080359060200190929190505050610789565b604051808215151515815260200191505060405180910390f35b34801561017257600080fd5b5061017b6109cb565b6040518082815260200191505060405180910390f35b34801561019d57600080fd5b506101a66109d3565b6040518082815260200191505060405180910390f35b3480156101c857600080fd5b506101d16109d9565b604051808273ffffffffffffffffffffffffffffffffffffffff1673ffffffffffffffffffffffffffffffffffffffff16815260200191505060405180910390f35b34801561021f57600080fd5b506102ab6004803603606081101561023657600080fd5b81019080803590602001909291908035906020019064010000000081111561025d57600080fd5b82018360208201111561026f57600080fd5b8035906020019184600183028401116401000000008311171561029157600080fd5b9091929391929390803590602001909291905050506109ff565b6040518082815260200191505060405180910390f35b3480156102cd57600080fd5b506102d6610ca8565b6040518082815260200191505060405180910390f35b3480156102f857600080fd5b50610301610cae565b604051808273ffffffffffffffffffffffffffffffffffffffff1673ffffffffffffffffffffffffffffffffffffffff16815260200191505060405180910390f35b34801561034f57600080fd5b506103896004803603604081101561036657600080fd5b8101908080359060200190929190803560ff169060200190929190505050610cd3565b604051808215151515815260200191505060405180910390f35b3480156103af57600080fd5b506103f2600480360360208110156103c657600080fd5b81019080803573ffffffffffffffffffffffffffffffffffffffff169060200190929190505050610d9e565b6040518082815260200191505060405180910390f35b34801561041457600080fd5b506104416004803603602081101561042b57600080fd5b8101908080359060200190929190505050610db6565b604051808673ffffffffffffffffffffffffffffffffffffffff1673ffffffffffffffffffffffffffffffffffffffff1681526020018573ffffffffffffffffffffffffffffffffffffffff1673ffffffffffffffffffffffffffffffffffffffff16815260200180602001848152602001838152602001828103825285818151815260200191508051906020019080838360005b838110156104f15780820151818401526020810190506104d6565b50505050905090810190601f16801561051e5780820380516001836020036101000a031916815260200191505b50965050505050505060405180910390f35b6001600760003373ffffffffffffffffffffffffffffffffffffffff1673ffffffffffffffffffffffffffffffffffffffff1681526020019081526020016000205414156105e6576040517f08c379a00000000000000000000000000000000000000000000000000000000081526004018080602001828103825260208152602001807f54686973207573657220697320616c726561647920726567697374657265642e81525060200191505060405180910390fd5b6001600760003373ffffffffffffffffffffffffffffffffffffffff1673ffffffffffffffffffffffffffffffffffffffff16815260200190815260200160002081905550600260009054906101000a900473ffffffffffffffffffffffffffffffffffffffff1673ffffffffffffffffffffffffffffffffffffffff166323b872dd6000809054906101000a900473ffffffffffffffffffffffffffffffffffffffff16336127106040518463ffffffff1660e01b8152600401808473ffffffffffffffffffffffffffffffffffffffff1673ffffffffffffffffffffffffffffffffffffffff1681526020018373ffffffffffffffffffffffffffffffffffffffff1673ffffffffffffffffffffffffffffffffffffffff1681526020018281526020019350505050602060405180830381600087803b15801561072b57600080fd5b505af115801561073f573d6000803e3d6000fd5b505050506040513d602081101561075557600080fd5b810190808051906020019092919050505050565b60066020528060005260406000206000915054906101000a900460ff1681565b60006001600760003373ffffffffffffffffffffffffffffffffffffffff1673ffffffffffffffffffffffffffffffffffffffff1681526020019081526020016000205414610840576040517f08c379a000000000000000000000000000000000000000000000000000000000815260040180806020018281038252601c8152602001807f546869732075736572206973206e6f7420726567697374657265642e0000000081525060200191505060405180910390fd5b60006005600085815260200190815260200160002060000160009054906101000a900473ffffffffffffffffffffffffffffffffffffffff169050600260009054906101000a900473ffffffffffffffffffffffffffffffffffffffff1673ffffffffffffffffffffffffffffffffffffffff166323b872dd3383866040518463ffffffff1660e01b8152600401808473ffffffffffffffffffffffffffffffffffffffff1673ffffffffffffffffffffffffffffffffffffffff1681526020018373ffffffffffffffffffffffffffffffffffffffff1673ffffffffffffffffffffffffffffffffffffffff1681526020018281526020019350505050602060405180830381600087803b15801561095857600080fd5b505af115801561096c573d6000803e3d6000fd5b505050506040513d602081101561098257600080fd5b81019080805190602001909291905050505060006006600086815260200190815260200160002060006101000a81548160ff021916908315150217905550600191505092915050565b600047905090565b60045481565b600260009054906101000a900473ffffffffffffffffffffffffffffffffffffffff1681565b60006001600760003373ffffffffffffffffffffffffffffffffffffffff1673ffffffffffffffffffffffffffffffffffffffff1681526020019081526020016000205414610ab6576040517f08c379a000000000000000000000000000000000000000000000000000000000815260040180806020018281038252601c8152602001807f546869732075736572206973206e6f7420726567697374657265642e0000000081525060200191505060405180910390fd5b610abe610ec4565b8581608001818152505033816000019073ffffffffffffffffffffffffffffffffffffffff16908173ffffffffffffffffffffffffffffffffffffffff168152505084848080601f016020809104026020016040519081016040528093929190818152602001838380828437600081840152601f19601f8201169050808301925050505050505081604001819052508281606001818152505033816020019073ffffffffffffffffffffffffffffffffffffffff16908173ffffffffffffffffffffffffffffffffffffffff1681525050806005600088815260200190815260200160002060008201518160000160006101000a81548173ffffffffffffffffffffffffffffffffffffffff021916908373ffffffffffffffffffffffffffffffffffffffff16021790555060208201518160010160006101000a81548173ffffffffffffffffffffffffffffffffffffffff021916908373ffffffffffffffffffffffffffffffffffffffff1602179055506040820151816002019080519060200190610c4d929190610f1f565b50606082015181600301556080820151816004015590505060016006600088815260200190815260200160002060006101000a81548160ff021916908315150217905550600180540160018190555085915050949350505050565b60035481565b6000809054906101000a900473ffffffffffffffffffffffffffffffffffffffff1681565b6000823373ffffffffffffffffffffffffffffffffffffffff166005600083815260200190815260200160002060000160009054906101000a900473ffffffffffffffffffffffffffffffffffffffff1673ffffffffffffffffffffffffffffffffffffffff1614610d4457600080fd5b600115156006600086815260200190815260200160002060009054906101000a900460ff16151514610d7557600080fd5b8260ff166005600086815260200190815260200160002060030181905550600191505092915050565b60076020528060005260406000206000915090505481565b60056020528060005260406000206000915090508060000160009054906101000a900473ffffffffffffffffffffffffffffffffffffffff16908060010160009054906101000a900473ffffffffffffffffffffffffffffffffffffffff1690806002018054600181600116156101000203166002900480601f016020809104026020016040519081016040528092919081815260200182805460018160011615610100020316600290048015610eae5780601f10610e8357610100808354040283529160200191610eae565b820191906000526020600020905b815481529060010190602001808311610e9157829003601f168201915b5050505050908060030154908060040154905085565b6040518060a00160405280600073ffffffffffffffffffffffffffffffffffffffff168152602001600073ffffffffffffffffffffffffffffffffffffffff1681526020016060815260200160008152602001600081525090565b828054600181600116156101000203166002900490600052602060002090601f016020900481019282601f10610f6057805160ff1916838001178555610f8e565b82800160010185558215610f8e579182015b82811115610f8d578251825591602001919060010190610f72565b5b509050610f9b9190610f9f565b5090565b610fc191905b80821115610fbd576000816000905550600101610fa5565b5090565b9056fea2646970667358221220bb2bccef643c9370d848e79eb86b3f86d90ef24271c97d5452bc360bd9ff470d64736f6c63430006020033",
  "source": "pragma solidity ^0.6.2;\r\n// SPDX-License-Identifier: UNLICENSED\r\nimport \"./ERC20CARAT.sol\";\r\n\r\ncontract CryptogalleryV2 {\r\n\r\n    address payable public owner;\r\n    uint uid;\r\n    ERC20CARAT public tokenContract;\r\n    uint256 public tokenPrice;\r\n    uint256 public tokensSold;\r\n\r\n    struct artDetails {        \r\n        address artistAddress;\r\n        address owner;\r\n        string description;\r\n        uint price;\r\n        uint id;\r\n    }\r\n    \r\n    mapping(uint => artDetails) public artData;\r\n    mapping(uint => bool) public artOnSale;\r\n    mapping(address => int) public users;\r\n\r\n    modifier onlyRegisteredUser {\r\n        require(users[msg.sender] == 1, \"This user is not registered.\");\r\n        _;\r\n    }\r\n\r\n    modifier onlyArtist (uint artId) {\r\n        require(artData[artId].artistAddress == msg.sender);\r\n        _;\r\n    }\r\n\r\n\r\n    constructor (ERC20CARAT _tokenContract, uint256 _tokenPrice) public  {\r\n        owner = msg.sender; // Deployer of the application.\r\n        tokenContract = _tokenContract;\r\n        tokenPrice = _tokenPrice;\r\n        uid = 100;\r\n    }\r\n\r\n    function register() external {\r\n        require(users[msg.sender] != 1, \"This user is already registered.\");\r\n        users[msg.sender] = 1;\r\n        tokenContract.transferFrom(owner, msg.sender, 10000);\r\n    }\r\n    \r\n    function addArt(uint id, string calldata description, uint price) external onlyRegisteredUser returns(uint artuid) {\r\n        artDetails memory art;\r\n        art.id = id;\r\n        art.artistAddress = msg.sender;\r\n        art.description = description;\r\n        art.price = price;\r\n        art.owner = msg.sender;\r\n        artData[id] = art;\r\n\r\n        artOnSale[id] = true;\r\n\r\n        uid = uid + 1; // Increment uid for future additions.\r\n        return id; // Return the unique id created for the art.\r\n    }\r\n\r\n    function purchaseArt(uint artId, uint price) external onlyRegisteredUser payable  returns(bool success){\r\n        // Check if there is sufficient balance for the purchase\r\n        // require(msg.value <= address(msg.sender).balance);\r\n\r\n        address artist = artData[artId].artistAddress;\r\n        tokenContract.transferFrom(msg.sender, artist, price);\r\n        // payable(artist).transfer(msg.value);\r\n        \r\n        artOnSale[artId] = false;\r\n\r\n        return true;\r\n    }\r\n\r\n    function getbalance() external view returns (uint balance){\r\n        return address(this).balance;\r\n    }\r\n\r\n    function manageArt(uint artId, uint8 updatedPrice) external onlyArtist(artId) returns(bool success){\r\n        require(artOnSale[artId] == true);\r\n        artData[artId].price = updatedPrice;\r\n        return true;\r\n    }\r\n    \r\n}",
  "sourcePath": "D:\\crypto-galary\\Cryptogallery-Dapp\\cryptogallery-contract\\contracts\\CryptogalleryV2.sol",
  "compiler": {
    "name": "solc",
    "version": "0.6.2+commit.bacdbe57.Emscripten.clang"
  },
  "schemaVersion": "3.4.5",
  "updatedAt": "2022-05-09T02:13:43.214Z",
  "networkType": "ethereum",
  "devdoc": {
    "methods": {}
  },
  "userdoc": {
    "methods": {}
  }
}